:4000000080673030303030307e3030307e30303030303030303030307e3030307e3030307d03007e7d02b97e7e3030307e3030303030303030303030303030303030303031
:4000400030303030303030303030303030303030303030303030303030303030303030307e3030307e303030711062e38770ef62e33841fefb50804e62e33843fe105dd0e8
:400080000862d00055fa024f5b010353f955f83a500600711051fe60e855fa014f5b010353f955f83a50060051fc60ea70ef1860d055f80055f900711062e00270ef62e35d
:4000c0003862d10150004e62d30162d00062d50062d40071c07c025762d000500157d00828530118750900284b5101800475090062e300082860d574a04b187509000828c1
:400100005301187509000828a01c53001875090008283f014701ffb0065dd57460d5187a00bfeb8fc9187509000828530050003f014701ffb0085dd57460d550007a00bf18
:40014000ef188faa18711043e31070ef62e000711062e00770ef62e2007c03478fff50117f303030303030303030303030303030230021642219270025ff267f60096400be
:4001800066006100e600e700d6006200b000b100b200b333b4a3b508b64cff20212111220624212511260461006b006000620067336400fd00d100d300d000d200e1ffe294
:4001c00000dffede02dd00d800d900da00db00ff035170ef62000071106200006201ff70ef6203ff620200711062020062030070ef620100620400711062041c6205e37050
:40020000ef6207e362061c711062060062070070ef62050062080071106208006209ff70ef620bff620a007110620a00620b0070ef620900620c007110620c00620d0f7082
:40024000ef620f0f620e007110620e00620f0070ef620d0070ef7f7c025e7c01d27f1070ef500067500157707c02795001675001579b7c027970ef207f380210084f56fccf
:4002800000d00456fc01182070ef62e30010082839ffa01f4f48fc01a003711054fd18207509001008284f59fd610018207509008fd738fc703f71c07f7e43e1027f41e10b
:4002c000fd7f4327017f4127fe7f60257f60267f5d267f4f5d26084127fe71105d250862250070ef5d245d26085200602671105201602570ef4327011838fe703f71c07fc3
:400300007e43e1017f41e1fe7f4323017f4123fe7f60217f60227f5d227f4f5d22084123fe71105d210862210070ef5d205d22085200602271105201602170ef432301180a
:4003400038fe703f71c07f107c03097c02c2208fffff00303030303030303030303030303030303030303030303030303030303030303030303030303030303030303030f3
:40038000303030303030303030303030303030303030303030303030303030303030303030303030303030303030303030303030303030303030303030303030303030303d
:4003c00030303030303030303030303030303030303030303030303030303030303030303030303030303030303030303030303030303030303030303030303030303030fd
:4004000030303030303030303030303030303030303030303030303030303030303030303030303030303030303030303030303030303030303030303030303030303030bc
:40044000303030303030303030303030303030303030303030303030303030303030303030303030303030303030303030303030303030303030303030303030303030307c
:020000040010ea
:020000040020da
:0200000075a1e8
:00000001ff
